{
  "contractName": "Coin",
  "abi": [
    {
      "inputs": [
        {
          "internalType": "bytes32",
          "name": "_id",
          "type": "bytes32"
        },
        {
          "internalType": "uint256",
          "name": "_rarity",
          "type": "uint256"
        }
      ],
      "payable": false,
      "stateMutability": "nonpayable",
      "type": "constructor"
    },
    {
      "constant": true,
      "inputs": [],
      "name": "id",
      "outputs": [
        {
          "internalType": "bytes32",
          "name": "",
          "type": "bytes32"
        }
      ],
      "payable": false,
      "stateMutability": "view",
      "type": "function"
    },
    {
      "constant": true,
      "inputs": [],
      "name": "rarity",
      "outputs": [
        {
          "internalType": "uint256",
          "name": "",
          "type": "uint256"
        }
      ],
      "payable": false,
      "stateMutability": "view",
      "type": "function"
    },
    {
      "constant": true,
      "inputs": [],
      "name": "getid",
      "outputs": [
        {
          "internalType": "bytes32",
          "name": "",
          "type": "bytes32"
        }
      ],
      "payable": false,
      "stateMutability": "view",
      "type": "function"
    },
    {
      "constant": true,
      "inputs": [],
      "name": "getrarity",
      "outputs": [
        {
          "internalType": "uint256",
          "name": "",
          "type": "uint256"
        }
      ],
      "payable": false,
      "stateMutability": "view",
      "type": "function"
    }
  ],
  "bytecode": "0x608060405234801561001057600080fd5b506040516101873803806101878339818101604052604081101561003357600080fd5b8101908080519060200190929190805190602001909291905050508160008190555080600181905550505061011a8061006d6000396000f3fe6080604052348015600f57600080fd5b506004361060465760003560e01c8063562c183814604b578063af640d0f146067578063f513f38e146083578063fef21f0f14609f575b600080fd5b605160bb565b6040518082815260200191505060405180910390f35b606d60ca565b6040518082815260200191505060405180910390f35b608960d0565b6040518082815260200191505060405180910390f35b60a560df565b6040518082815260200191505060405180910390f35b60008060015490508091505090565b60005481565b60008060005490508091505090565b6001548156fea265627a7a72315820e505b0406df190c7848df45d0d752f6612eafb94e17904c1af3790fd6e85fc3e64736f6c63430005100032",
  "source": "pragma solidity ^0.5.0;\r\ncontract Coin {\r\nbytes32 public id;\r\nuint public rarity;\r\nconstructor(bytes32 _id, uint _rarity) public {\r\nid = _id;\r\nrarity = _rarity;\r\n}\r\nfunction getid () external view returns(bytes32){\r\n    bytes32 id1=id;\r\n    return(id1);\r\n}\r\nfunction getrarity() external view returns(uint){\r\n    uint rarity1=rarity;\r\n    return(rarity1);\r\n}\r\n\r\n}\r\n",
  "sourcePath": "C:/Users/DEvanshu/Desktop/coinchecker/contracts/Coin.sol",
  "compiler": {
    "name": "solc",
    "version": "0.5.16+commit.9c3226ce.Emscripten.clang"
  },
  "schemaVersion": "3.4.1",
  "updatedAt": "2021-08-03T13:33:03.399Z",
  "networkType": "ethereum",
  "devdoc": {
    "methods": {}
  },
  "userdoc": {
    "methods": {}
  }
}