{
  "contractName": "NotCoin",
  "abi": [
    {
      "inputs": [
        {
          "internalType": "bytes32",
          "name": "_id",
          "type": "bytes32"
        },
        {
          "internalType": "uint256",
          "name": "_rarity",
          "type": "uint256"
        }
      ],
      "payable": false,
      "stateMutability": "nonpayable",
      "type": "constructor"
    },
    {
      "constant": true,
      "inputs": [],
      "name": "notId",
      "outputs": [
        {
          "internalType": "bytes32",
          "name": "",
          "type": "bytes32"
        }
      ],
      "payable": false,
      "stateMutability": "view",
      "type": "function"
    },
    {
      "constant": true,
      "inputs": [],
      "name": "notRarity",
      "outputs": [
        {
          "internalType": "uint256",
          "name": "",
          "type": "uint256"
        }
      ],
      "payable": false,
      "stateMutability": "view",
      "type": "function"
    },
    {
      "constant": true,
      "inputs": [],
      "name": "getid",
      "outputs": [
        {
          "internalType": "bytes32",
          "name": "",
          "type": "bytes32"
        }
      ],
      "payable": false,
      "stateMutability": "view",
      "type": "function"
    },
    {
      "constant": true,
      "inputs": [],
      "name": "getrarity",
      "outputs": [
        {
          "internalType": "uint256",
          "name": "",
          "type": "uint256"
        }
      ],
      "payable": false,
      "stateMutability": "view",
      "type": "function"
    }
  ],
  "bytecode": "0x608060405234801561001057600080fd5b5060405161017c38038061017c8339818101604052604081101561003357600080fd5b8101908080519060200190929190805190602001909291905050508160008190555080600181905550505061010f8061006d6000396000f3fe6080604052348015600f57600080fd5b506004361060465760003560e01c80630b72b51614604b578063562c18381460675780639746e781146083578063f513f38e14609f575b600080fd5b605160bb565b6040518082815260200191505060405180910390f35b606d60c1565b6040518082815260200191505060405180910390f35b608960cb565b6040518082815260200191505060405180910390f35b60a560d1565b6040518082815260200191505060405180910390f35b60005481565b6000600154905090565b60015481565b6000805490509056fea265627a7a72315820383d95ca22c1cb274ddc607f41b1a562306d73478368aa83b63c8f5e2b68f72b64736f6c63430005100032",
  "source": "pragma solidity ^0.5.0;\r\ncontract NotCoin{\r\nbytes32 public notId;\r\nuint public notRarity;\r\nconstructor(bytes32 _id, uint _rarity) public {\r\nnotId = _id;\r\nnotRarity = _rarity;\r\n}\r\nfunction getid () external view returns(bytes32){\r\n    return(notId);\r\n}\r\nfunction getrarity() external view returns(uint){\r\n    return(notRarity);\r\n}\r\n}",
  "sourcePath": "C:/Users/DEvanshu/Desktop/coinchecker/contracts/NotCoin.sol",
  "compiler": {
    "name": "solc",
    "version": "0.5.16+commit.9c3226ce.Emscripten.clang"
  },
  "schemaVersion": "3.4.1",
  "updatedAt": "2021-08-03T13:33:03.403Z",
  "networkType": "ethereum",
  "devdoc": {
    "methods": {}
  },
  "userdoc": {
    "methods": {}
  }
}